:020000020000FC
:1000000008E00EBF0FEF0DBF01EC05B906EC04B917
:1000100001E007B90FEF0BB900E00AB900E2009365
:10002000870000E00093860002E00093890000E072
:100030000093880003E80093800000E002BD01BD4A
:10004000F89AD0B5D030D1F12E982F980C945E004C
:100050000A950030E9F71A951030D1F72A9520302B
:10006000B9F708950FEF1FEF21E00E9428000895CF
:1000700010E8202F21230F931F93203029F400E054
:10008000009381000C9447000AE0009381000E94D5
:1000900032001F910F911695103059F700E0009330
:1000A0008100089505910E94380005910030D9F72C
:1000B00008950FEF1FEF20E20E94280003B10170A6
:1000C0000030E1F72E9A2F980000000009B12F9A16
:1000D0002E980000000019B12E9AD03041F425E985
:1000E000023E120731F7D395D0BDFA9AF99A2E98AD
:1000F0002F980F931F930FEF1FEF20E10E9428000E
:100100001F910F9125E9023E120761F42A9AF1E04E
:10011000E6EE0E945200F1E0ECEF0E9452002A98B5
:100120000C945E002AE80E35120721F025E7013A0B
:10013000120751F4F1E0E6EE0E945200F2E0ECE129
:100140000E9452000C945E0020E030E040E020FF6E
:100150000C94AB00009521FF0C94AF00109522FF8A
:100160000C94B300039523FF0C94B8001A951A95CC
:1001700024FF0C94BC00029525FF0C94CD008894BC
:10018000001F001F001F001F111F111F111F111F33
:10019000001F001F001F001F001F26FF0C94D1002E
:1001A000012727FF0C94D5001295239523130C9457
:1001B000A70029E90536120761F4409AF1E0E6EE5E
:1001C0000E945200F2E0EAE30E94520040980C9430
:1001D0005E00F1E0E6EE0E945200F1E0ECEE0E94DB
:1001E00052000C945E00F0F0F0F00000696E636F56
:1001F000727265637420636F6465000053534D7BB6
:10020000306E336A5F316E37335F356B756D375FD4
:100210006C6A75645F3136336E7D000053534D7BDD
:100220006433375F6434725F7634725F72316B3778
:100230003136375F6B756C7D000053534D7B6834EE
:10024000725F64755F37723037376E34375F703482
:0A0250005F3476725F346E3F7D006C
:00000001FF
